{
  "_format": "hh-sol-artifact-1",
  "contractName": "OracleCore",
  "sourceName": "contracts/OracleCore.sol",
  "abi": [
    {
      "inputs": [
        {
          "internalType": "address",
          "name": "admin",
          "type": "address"
        }
      ],
      "stateMutability": "nonpayable",
      "type": "constructor"
    },
    {
      "inputs": [],
      "name": "AccessControlBadConfirmation",
      "type": "error"
    },
    {
      "inputs": [
        {
          "internalType": "address",
          "name": "account",
          "type": "address"
        },
        {
          "internalType": "bytes32",
          "name": "neededRole",
          "type": "bytes32"
        }
      ],
      "name": "AccessControlUnauthorizedAccount",
      "type": "error"
    },
    {
      "inputs": [],
      "name": "EnforcedPause",
      "type": "error"
    },
    {
      "inputs": [],
      "name": "ExpectedPause",
      "type": "error"
    },
    {
      "inputs": [],
      "name": "ReentrancyGuardReentrantCall",
      "type": "error"
    },
    {
      "anonymous": false,
      "inputs": [
        {
          "indexed": true,
          "internalType": "uint256",
          "name": "oracleId",
          "type": "uint256"
        }
      ],
      "name": "OracleDeactivated",
      "type": "event"
    },
    {
      "anonymous": false,
      "inputs": [
        {
          "indexed": true,
          "internalType": "uint256",
          "name": "oracleId",
          "type": "uint256"
        },
        {
          "indexed": false,
          "internalType": "string",
          "name": "name",
          "type": "string"
        },
        {
          "indexed": true,
          "internalType": "address",
          "name": "agency",
          "type": "address"
        },
        {
          "indexed": false,
          "internalType": "uint256",
          "name": "disburseCusd",
          "type": "uint256"
        }
      ],
      "name": "OracleDeployed",
      "type": "event"
    },
    {
      "anonymous": false,
      "inputs": [
        {
          "indexed": true,
          "internalType": "uint256",
          "name": "oracleId",
          "type": "uint256"
        },
        {
          "indexed": false,
          "internalType": "uint256",
          "name": "familiesAffected",
          "type": "uint256"
        },
        {
          "indexed": false,
          "internalType": "uint256",
          "name": "totalDisbursed",
          "type": "uint256"
        },
        {
          "indexed": false,
          "internalType": "string",
          "name": "dataValue",
          "type": "string"
        },
        {
          "indexed": false,
          "internalType": "uint256",
          "name": "timestamp",
          "type": "uint256"
        }
      ],
      "name": "OracleTriggered",
      "type": "event"
    },
    {
      "anonymous": false,
      "inputs": [
        {
          "indexed": false,
          "internalType": "address",
          "name": "account",
          "type": "address"
        }
      ],
      "name": "Paused",
      "type": "event"
    },
    {
      "anonymous": false,
      "inputs": [
        {
          "indexed": true,
          "internalType": "bytes32",
          "name": "role",
          "type": "bytes32"
        },
        {
          "indexed": true,
          "internalType": "bytes32",
          "name": "previousAdminRole",
          "type": "bytes32"
        },
        {
          "indexed": true,
          "internalType": "bytes32",
          "name": "newAdminRole",
          "type": "bytes32"
        }
      ],
      "name": "RoleAdminChanged",
      "type": "event"
    },
    {
      "anonymous": false,
      "inputs": [
        {
          "indexed": true,
          "internalType": "bytes32",
          "name": "role",
          "type": "bytes32"
        },
        {
          "indexed": true,
          "internalType": "address",
          "name": "account",
          "type": "address"
        },
        {
          "indexed": true,
          "internalType": "address",
          "name": "sender",
          "type": "address"
        }
      ],
      "name": "RoleGranted",
      "type": "event"
    },
    {
      "anonymous": false,
      "inputs": [
        {
          "indexed": true,
          "internalType": "bytes32",
          "name": "role",
          "type": "bytes32"
        },
        {
          "indexed": true,
          "internalType": "address",
          "name": "account",
          "type": "address"
        },
        {
          "indexed": true,
          "internalType": "address",
          "name": "sender",
          "type": "address"
        }
      ],
      "name": "RoleRevoked",
      "type": "event"
    },
    {
      "anonymous": false,
      "inputs": [
        {
          "indexed": false,
          "internalType": "address",
          "name": "account",
          "type": "address"
        }
      ],
      "name": "Unpaused",
      "type": "event"
    },
    {
      "inputs": [],
      "name": "ADMIN_ROLE",
      "outputs": [
        {
          "internalType": "bytes32",
          "name": "",
          "type": "bytes32"
        }
      ],
      "stateMutability": "view",
      "type": "function"
    },
    {
      "inputs": [],
      "name": "AGENCY_ROLE",
      "outputs": [
        {
          "internalType": "bytes32",
          "name": "",
          "type": "bytes32"
        }
      ],
      "stateMutability": "view",
      "type": "function"
    },
    {
      "inputs": [],
      "name": "DEFAULT_ADMIN_ROLE",
      "outputs": [
        {
          "internalType": "bytes32",
          "name": "",
          "type": "bytes32"
        }
      ],
      "stateMutability": "view",
      "type": "function"
    },
    {
      "inputs": [],
      "name": "ORACLE_ROLE",
      "outputs": [
        {
          "internalType": "bytes32",
          "name": "",
          "type": "bytes32"
        }
      ],
      "stateMutability": "view",
      "type": "function"
    },
    {
      "inputs": [
        {
          "internalType": "uint256",
          "name": "oracleId",
          "type": "uint256"
        }
      ],
      "name": "deactivateOracle",
      "outputs": [],
      "stateMutability": "nonpayable",
      "type": "function"
    },
    {
      "inputs": [
        {
          "internalType": "string",
          "name": "name",
          "type": "string"
        },
        {
          "internalType": "string",
          "name": "dataSource",
          "type": "string"
        },
        {
          "internalType": "string",
          "name": "condition",
          "type": "string"
        },
        {
          "internalType": "uint256",
          "name": "disburseCusd",
          "type": "uint256"
        },
        {
          "internalType": "string",
          "name": "scopeDistrict",
          "type": "string"
        },
        {
          "internalType": "uint256",
          "name": "checkIntervalSec",
          "type": "uint256"
        }
      ],
      "name": "deployOracle",
      "outputs": [
        {
          "internalType": "uint256",
          "name": "oracleId",
          "type": "uint256"
        }
      ],
      "stateMutability": "nonpayable",
      "type": "function"
    },
    {
      "inputs": [
        {
          "internalType": "uint256",
          "name": "oracleId",
          "type": "uint256"
        }
      ],
      "name": "getOracle",
      "outputs": [
        {
          "components": [
            {
              "internalType": "string",
              "name": "name",
              "type": "string"
            },
            {
              "internalType": "string",
              "name": "dataSource",
              "type": "string"
            },
            {
              "internalType": "string",
              "name": "condition",
              "type": "string"
            },
            {
              "internalType": "uint256",
              "name": "disburseCusd",
              "type": "uint256"
            },
            {
              "internalType": "string",
              "name": "scopeDistrict",
              "type": "string"
            },
            {
              "internalType": "uint256",
              "name": "checkIntervalSec",
              "type": "uint256"
            },
            {
              "internalType": "address",
              "name": "agencyAddress",
              "type": "address"
            },
            {
              "internalType": "bool",
              "name": "active",
              "type": "bool"
            },
            {
              "internalType": "uint256",
              "name": "createdAt",
              "type": "uint256"
            },
            {
              "internalType": "uint256",
              "name": "lastTriggeredAt",
              "type": "uint256"
            },
            {
              "internalType": "uint256",
              "name": "triggerCount",
              "type": "uint256"
            }
          ],
          "internalType": "struct OracleCore.OracleConfig",
          "name": "",
          "type": "tuple"
        }
      ],
      "stateMutability": "view",
      "type": "function"
    },
    {
      "inputs": [
        {
          "internalType": "bytes32",
          "name": "role",
          "type": "bytes32"
        }
      ],
      "name": "getRoleAdmin",
      "outputs": [
        {
          "internalType": "bytes32",
          "name": "",
          "type": "bytes32"
        }
      ],
      "stateMutability": "view",
      "type": "function"
    },
    {
      "inputs": [
        {
          "internalType": "uint256",
          "name": "index",
          "type": "uint256"
        }
      ],
      "name": "getTriggerEvent",
      "outputs": [
        {
          "components": [
            {
              "internalType": "uint256",
              "name": "oracleId",
              "type": "uint256"
            },
            {
              "internalType": "uint256",
              "name": "timestamp",
              "type": "uint256"
            },
            {
              "internalType": "uint256",
              "name": "familiesAffected",
              "type": "uint256"
            },
            {
              "internalType": "uint256",
              "name": "totalDisbursed",
              "type": "uint256"
            },
            {
              "internalType": "string",
              "name": "dataValue",
              "type": "string"
            },
            {
              "internalType": "address",
              "name": "triggeredBy",
              "type": "address"
            }
          ],
          "internalType": "struct OracleCore.TriggerEvent",
          "name": "",
          "type": "tuple"
        }
      ],
      "stateMutability": "view",
      "type": "function"
    },
    {
      "inputs": [
        {
          "internalType": "bytes32",
          "name": "role",
          "type": "bytes32"
        },
        {
          "internalType": "address",
          "name": "account",
          "type": "address"
        }
      ],
      "name": "grantRole",
      "outputs": [],
      "stateMutability": "nonpayable",
      "type": "function"
    },
    {
      "inputs": [
        {
          "internalType": "bytes32",
          "name": "role",
          "type": "bytes32"
        },
        {
          "internalType": "address",
          "name": "account",
          "type": "address"
        }
      ],
      "name": "hasRole",
      "outputs": [
        {
          "internalType": "bool",
          "name": "",
          "type": "bool"
        }
      ],
      "stateMutability": "view",
      "type": "function"
    },
    {
      "inputs": [
        {
          "internalType": "uint256",
          "name": "",
          "type": "uint256"
        }
      ],
      "name": "oracles",
      "outputs": [
        {
          "internalType": "string",
          "name": "name",
          "type": "string"
        },
        {
          "internalType": "string",
          "name": "dataSource",
          "type": "string"
        },
        {
          "internalType": "string",
          "name": "condition",
          "type": "string"
        },
        {
          "internalType": "uint256",
          "name": "disburseCusd",
          "type": "uint256"
        },
        {
          "internalType": "string",
          "name": "scopeDistrict",
          "type": "string"
        },
        {
          "internalType": "uint256",
          "name": "checkIntervalSec",
          "type": "uint256"
        },
        {
          "internalType": "address",
          "name": "agencyAddress",
          "type": "address"
        },
        {
          "internalType": "bool",
          "name": "active",
          "type": "bool"
        },
        {
          "internalType": "uint256",
          "name": "createdAt",
          "type": "uint256"
        },
        {
          "internalType": "uint256",
          "name": "lastTriggeredAt",
          "type": "uint256"
        },
        {
          "internalType": "uint256",
          "name": "triggerCount",
          "type": "uint256"
        }
      ],
      "stateMutability": "view",
      "type": "function"
    },
    {
      "inputs": [],
      "name": "pause",
      "outputs": [],
      "stateMutability": "nonpayable",
      "type": "function"
    },
    {
      "inputs": [],
      "name": "paused",
      "outputs": [
        {
          "internalType": "bool",
          "name": "",
          "type": "bool"
        }
      ],
      "stateMutability": "view",
      "type": "function"
    },
    {
      "inputs": [
        {
          "internalType": "address",
          "name": "agency",
          "type": "address"
        }
      ],
      "name": "registerAgency",
      "outputs": [],
      "stateMutability": "nonpayable",
      "type": "function"
    },
    {
      "inputs": [
        {
          "internalType": "address",
          "name": "service",
          "type": "address"
        }
      ],
      "name": "registerOracleService",
      "outputs": [],
      "stateMutability": "nonpayable",
      "type": "function"
    },
    {
      "inputs": [
        {
          "internalType": "bytes32",
          "name": "role",
          "type": "bytes32"
        },
        {
          "internalType": "address",
          "name": "callerConfirmation",
          "type": "address"
        }
      ],
      "name": "renounceRole",
      "outputs": [],
      "stateMutability": "nonpayable",
      "type": "function"
    },
    {
      "inputs": [
        {
          "internalType": "bytes32",
          "name": "role",
          "type": "bytes32"
        },
        {
          "internalType": "address",
          "name": "account",
          "type": "address"
        }
      ],
      "name": "revokeRole",
      "outputs": [],
      "stateMutability": "nonpayable",
      "type": "function"
    },
    {
      "inputs": [
        {
          "internalType": "bytes4",
          "name": "interfaceId",
          "type": "bytes4"
        }
      ],
      "name": "supportsInterface",
      "outputs": [
        {
          "internalType": "bool",
          "name": "",
          "type": "bool"
        }
      ],
      "stateMutability": "view",
      "type": "function"
    },
    {
      "inputs": [],
      "name": "totalOracles",
      "outputs": [
        {
          "internalType": "uint256",
          "name": "",
          "type": "uint256"
        }
      ],
      "stateMutability": "view",
      "type": "function"
    },
    {
      "inputs": [],
      "name": "totalTriggers",
      "outputs": [
        {
          "internalType": "uint256",
          "name": "",
          "type": "uint256"
        }
      ],
      "stateMutability": "view",
      "type": "function"
    },
    {
      "inputs": [
        {
          "internalType": "uint256",
          "name": "",
          "type": "uint256"
        }
      ],
      "name": "triggerHistory",
      "outputs": [
        {
          "internalType": "uint256",
          "name": "oracleId",
          "type": "uint256"
        },
        {
          "internalType": "uint256",
          "name": "timestamp",
          "type": "uint256"
        },
        {
          "internalType": "uint256",
          "name": "familiesAffected",
          "type": "uint256"
        },
        {
          "internalType": "uint256",
          "name": "totalDisbursed",
          "type": "uint256"
        },
        {
          "internalType": "string",
          "name": "dataValue",
          "type": "string"
        },
        {
          "internalType": "address",
          "name": "triggeredBy",
          "type": "address"
        }
      ],
      "stateMutability": "view",
      "type": "function"
    },
    {
      "inputs": [
        {
          "internalType": "uint256",
          "name": "oracleId",
          "type": "uint256"
        },
        {
          "internalType": "uint256",
          "name": "familiesAffected",
          "type": "uint256"
        },
        {
          "internalType": "string",
          "name": "dataValue",
          "type": "string"
        }
      ],
      "name": "triggerOracle",
      "outputs": [],
      "stateMutability": "nonpayable",
      "type": "function"
    },
    {
      "inputs": [],
      "name": "unpause",
      "outputs": [],
      "stateMutability": "nonpayable",
      "type": "function"
    }
  ],
  "bytecode": "0x60806040523480156200001157600080fd5b5060405162001f9b38038062001f9b833981016040819052620000349162000157565b600160025562000046600082620000a8565b50620000737fa49807205ce4d355092ef5a8a18f56e8913cf4a201fbe287825b095693c2177582620000a8565b50620000a07f68e79a7bf1e0bc45d0a330c573bc367f9cf464fd326078812f301165fbda4ef182620000a8565b505062000189565b6000828152602081815260408083206001600160a01b038516845290915281205460ff166200014d576000838152602081815260408083206001600160a01b03861684529091529020805460ff19166001179055620001043390565b6001600160a01b0316826001600160a01b0316847f2f8788117e7eff1d82e926ec794901d17c78024a50270940304540a733656f0d60405160405180910390a450600162000151565b5060005b92915050565b6000602082840312156200016a57600080fd5b81516001600160a01b03811681146200018257600080fd5b9392505050565b611e0280620001996000396000f3fe608060405234801561001057600080fd5b50600436106101585760003560e01c806375b238fc116100c3578063d547741f1161007c578063d547741f14610321578063d7e4a8ac14610334578063e67f54f814610347578063ef370a481461035a578063f2fbad471461036d578063f57258341461037557600080fd5b806375b238fc146102c15780638456cb59146102d657806391d14854146102de578063a217fddf146102f1578063a90a3e17146102f9578063c2caf0b81461030157600080fd5b80632f2ff15d116101155780632f2ff15d1461023757806336568abe1461024a5780633f4ba83a1461025d5780634d0adefd146102655780635b69a7d81461028c5780635c975abb146102b657600080fd5b806301ffc9a71461015d57806307e2cea51461018557806310a9de60146101ba578063248a9ca3146101da5780632aaf0ed4146101fd5780632d5e2c7714610212575b600080fd5b61017061016b3660046116b2565b610388565b60405190151581526020015b60405180910390f35b6101ac7f68e79a7bf1e0bc45d0a330c573bc367f9cf464fd326078812f301165fbda4ef181565b60405190815260200161017c565b6101cd6101c83660046116e3565b6103bf565b60405161017c9190611742565b6101ac6101e83660046116e3565b60009081526020819052604090206001015490565b61021061020b366004611847565b610724565b005b6102256102203660046116e3565b61076b565b60405161017c96959493929190611862565b6102106102453660046118a8565b610848565b6102106102583660046118a8565b610873565b6102106108a6565b6101ac7fb65a831710346acfae65a808a37f27ab439206a966e9a4ab4035af91c51c8dd181565b61029f61029a3660046116e3565b6108c9565b60405161017c9b9a999897969594939291906118d4565b60015460ff16610170565b6101ac600080516020611dad83398151915281565b610210610b64565b6101706102ec3660046118a8565b610b84565b6101ac600081565b6004546101ac565b61031461030f3660046116e3565b610bad565b60405161017c919061196c565b61021061032f3660046118a8565b610d37565b610210610342366004611847565b610d5c565b6102106103553660046116e3565b610d9e565b610210610368366004611a1a565b610ec2565b6003546101ac565b6101ac610383366004611a6d565b611144565b60006001600160e01b03198216637965db0b60e01b14806103b957506301ffc9a760e01b6001600160e01b03198316145b92915050565b61042760405180610160016040528060608152602001606081526020016060815260200160008152602001606081526020016000815260200160006001600160a01b031681526020016000151581526020016000815260200160008152602001600081525090565b60035482106104515760405162461bcd60e51b815260040161044890611b47565b60405180910390fd5b6003828154811061046457610464611b71565b90600052602060002090600a02016040518061016001604052908160008201805461048e90611b87565b80601f01602080910402602001604051908101604052809291908181526020018280546104ba90611b87565b80156105075780601f106104dc57610100808354040283529160200191610507565b820191906000526020600020905b8154815290600101906020018083116104ea57829003601f168201915b5050505050815260200160018201805461052090611b87565b80601f016020809104026020016040519081016040528092919081815260200182805461054c90611b87565b80156105995780601f1061056e57610100808354040283529160200191610599565b820191906000526020600020905b81548152906001019060200180831161057c57829003601f168201915b505050505081526020016002820180546105b290611b87565b80601f01602080910402602001604051908101604052809291908181526020018280546105de90611b87565b801561062b5780601f106106005761010080835404028352916020019161062b565b820191906000526020600020905b81548152906001019060200180831161060e57829003601f168201915b505050505081526020016003820154815260200160048201805461064e90611b87565b80601f016020809104026020016040519081016040528092919081815260200182805461067a90611b87565b80156106c75780601f1061069c576101008083540402835291602001916106c7565b820191906000526020600020905b8154815290600101906020018083116106aa57829003601f168201915b50505091835250506005820154602082015260068201546001600160a01b0381166040830152600160a01b900460ff161515606082015260078201546080820152600882015460a082015260099091015460c09091015292915050565b600080516020611dad83398151915261073c81611470565b6107667fb65a831710346acfae65a808a37f27ab439206a966e9a4ab4035af91c51c8dd18361147a565b505050565b6004818154811061077b57600080fd5b90600052602060002090600602016000915090508060000154908060010154908060020154908060030154908060040180546107b690611b87565b80601f01602080910402602001604051908101604052809291908181526020018280546107e290611b87565b801561082f5780601f106108045761010080835404028352916020019161082f565b820191906000526020600020905b81548152906001019060200180831161081257829003601f168201915b505050600590930154919250506001600160a01b031686565b60008281526020819052604090206001015461086381611470565b61086d838361147a565b50505050565b6001600160a01b038116331461089c5760405163334bd91960e11b815260040160405180910390fd5b610766828261150c565b600080516020611dad8339815191526108be81611470565b6108c6611577565b50565b600381815481106108d957600080fd5b90600052602060002090600a02016000915090508060000180546108fc90611b87565b80601f016020809104026020016040519081016040528092919081815260200182805461092890611b87565b80156109755780601f1061094a57610100808354040283529160200191610975565b820191906000526020600020905b81548152906001019060200180831161095857829003601f168201915b50505050509080600101805461098a90611b87565b80601f01602080910402602001604051908101604052809291908181526020018280546109b690611b87565b8015610a035780601f106109d857610100808354040283529160200191610a03565b820191906000526020600020905b8154815290600101906020018083116109e657829003601f168201915b505050505090806002018054610a1890611b87565b80601f0160208091040260200160405190810160405280929190818152602001828054610a4490611b87565b8015610a915780601f10610a6657610100808354040283529160200191610a91565b820191906000526020600020905b815481529060010190602001808311610a7457829003601f168201915b505050505090806003015490806004018054610aac90611b87565b80601f0160208091040260200160405190810160405280929190818152602001828054610ad890611b87565b8015610b255780601f10610afa57610100808354040283529160200191610b25565b820191906000526020600020905b815481529060010190602001808311610b0857829003601f168201915b505050506005830154600684015460078501546008860154600990960154949592946001600160a01b0383169450600160a01b90920460ff169290918b565b600080516020611dad833981519152610b7c81611470565b6108c66115c9565b6000918252602082815260408084206001600160a01b0393909316845291905290205460ff1690565b610bef6040518060c00160405280600081526020016000815260200160008152602001600081526020016060815260200160006001600160a01b031681525090565b6004548210610c365760405162461bcd60e51b8152602060048201526013602482015272496e646578206f7574206f6620626f756e647360681b6044820152606401610448565b60048281548110610c4957610c49611b71565b90600052602060002090600602016040518060c001604052908160008201548152602001600182015481526020016002820154815260200160038201548152602001600482018054610c9a90611b87565b80601f0160208091040260200160405190810160405280929190818152602001828054610cc690611b87565b8015610d135780601f10610ce857610100808354040283529160200191610d13565b820191906000526020600020905b815481529060010190602001808311610cf657829003601f168201915b5050509183525050600591909101546001600160a01b031660209091015292915050565b600082815260208190526040902060010154610d5281611470565b61086d838361150c565b600080516020611dad833981519152610d7481611470565b6107667f68e79a7bf1e0bc45d0a330c573bc367f9cf464fd326078812f301165fbda4ef18361147a565b6003548110610dbf5760405162461bcd60e51b815260040161044890611b47565b336001600160a01b031660038281548110610ddc57610ddc611b71565b600091825260209091206006600a9092020101546001600160a01b03161480610e185750610e18600080516020611dad83398151915233610b84565b610e555760405162461bcd60e51b815260206004820152600e60248201526d139bdd08185d5d1a1bdc9a5e995960921b6044820152606401610448565b600060038281548110610e6a57610e6a611b71565b6000918252602082206006600a90920201018054921515600160a01b0260ff60a01b199093169290921790915560405182917f0ba82e36d884587dfc5c9b7cb23736dbc093bbc7ba20a8bb1215d737f3d60eb791a250565b7f68e79a7bf1e0bc45d0a330c573bc367f9cf464fd326078812f301165fbda4ef1610eec81611470565b610ef4611604565b610efc61162a565b6003548510610f1d5760405162461bcd60e51b815260040161044890611b47565b600060038681548110610f3257610f32611b71565b90600052602060002090600a020190508060060160149054906101000a900460ff16610f945760405162461bcd60e51b81526020600482015260116024820152704f7261636c65206e6f742061637469766560781b6044820152606401610448565b60008511610fdb5760405162461bcd60e51b8152602060048201526014602482015273139bc819985b5a5b1a595cc81859999958dd195960621b6044820152606401610448565b6000858260030154610fed9190611bd7565b426008840155600983018054919250600061100783611bee565b919050555060046040518060c0016040528089815260200142815260200188815260200183815260200187878080601f01602080910402602001604051908101604052809392919081815260200183838082843760009201829052509385525050336020938401525083546001818101865594825290829020835160069092020190815590820151928101929092556040810151600283015560608101516003830155608081015190919060048201906110c19082611c6d565b5060a08201518160050160006101000a8154816001600160a01b0302191690836001600160a01b031602179055505050867f3ba4fb8f0d51961e442b439633cfcf88e7badd5bb78b4690bc76f7e72dc7f40a8783888842604051611129959493929190611d56565b60405180910390a2505061113d6001600255565b5050505050565b60007fb65a831710346acfae65a808a37f27ab439206a966e9a4ab4035af91c51c8dd161117081611470565b611178611604565b600086116111c85760405162461bcd60e51b815260206004820152601860248201527f446973627572736520616d6f756e7420726571756972656400000000000000006044820152606401610448565b8a6112055760405162461bcd60e51b815260206004820152600d60248201526c13985b59481c995c5d5a5c9959609a1b6044820152606401610448565b600380549050915060036040518061016001604052808e8e8080601f016020809104026020016040519081016040528093929190818152602001838380828437600092019190915250505090825250604080516020601f8f018190048102820181019092528d815291810191908e908e9081908401838280828437600092019190915250505090825250604080516020601f8d018190048102820181019092528b815291810191908c908c908190840183828082843760009201919091525050509082525060208082018a905260408051601f8a0183900483028101830182528981529201919089908990819084018382808284376000920182905250938552505050602080830188905233604084015260016060840181905242608085015260a0840183905260c0909301829052845492830185559381529290922081519192600a02019081906113579082611c6d565b506020820151600182019061136c9082611c6d565b50604082015160028201906113819082611c6d565b5060608201516003820155608082015160048201906113a09082611c6d565b5060a0820151816005015560c08201518160060160006101000a8154816001600160a01b0302191690836001600160a01b0316021790555060e08201518160060160146101000a81548160ff0219169083151502179055506101008201518160070155610120820151816008015561014082015181600901555050336001600160a01b0316827ffb038721e798dee4df1ce75bc860de407d6676ef623086fe8e96f72f913eae0b8e8e8a60405161145993929190611d88565b60405180910390a3509a9950505050505050505050565b6108c68133611652565b60006114868383610b84565b611504576000838152602081815260408083206001600160a01b03861684529091529020805460ff191660011790556114bc3390565b6001600160a01b0316826001600160a01b0316847f2f8788117e7eff1d82e926ec794901d17c78024a50270940304540a733656f0d60405160405180910390a45060016103b9565b5060006103b9565b60006115188383610b84565b15611504576000838152602081815260408083206001600160a01b0386168085529252808320805460ff1916905551339286917ff6391f5c32d9c69d2a47ea670b442974b53935d1edc7fd64eb21e047a839171b9190a45060016103b9565b61157f61168f565b6001805460ff191690557f5db9ee0a495bf2e6ff9c91a7834c1ba4fdd244a5e8aa4e537bd38aeae4b073aa335b6040516001600160a01b03909116815260200160405180910390a1565b6115d1611604565b6001805460ff1916811790557f62e78cea01bee320cd4e420270b5ea74000d11b0c9f74754ebdbfc544b05a258336115ac565b60015460ff16156116285760405163d93c066560e01b815260040160405180910390fd5b565b600280540361164c57604051633ee5aeb560e01b815260040160405180910390fd5b60028055565b61165c8282610b84565b61168b5760405163e2517d3f60e01b81526001600160a01b038216600482015260248101839052604401610448565b5050565b60015460ff1661162857604051638dfc202b60e01b815260040160405180910390fd5b6000602082840312156116c457600080fd5b81356001600160e01b0319811681146116dc57600080fd5b9392505050565b6000602082840312156116f557600080fd5b5035919050565b6000815180845260005b8181101561172257602081850181015186830182015201611706565b506000602082860101526020601f19601f83011685010191505092915050565b60208152600082516101608060208501526117616101808501836116fc565b91506020850151601f198086850301604087015261177f84836116fc565b9350604087015191508086850301606087015261179c84836116fc565b93506060870151608087015260808701519150808685030160a0870152506117c483826116fc565b92505060a085015160c085015260c08501516117eb60e08601826001600160a01b03169052565b5060e08501516101006118018187018315159052565b86015161012086810191909152860151610140808701919091529095015193019290925250919050565b80356001600160a01b038116811461184257600080fd5b919050565b60006020828403121561185957600080fd5b6116dc8261182b565b86815285602082015284604082015283606082015260c06080820152600061188d60c08301856116fc565b905060018060a01b03831660a0830152979650505050505050565b600080604083850312156118bb57600080fd5b823591506118cb6020840161182b565b90509250929050565b60006101608083526118e88184018f6116fc565b905082810360208401526118fc818e6116fc565b90508281036040840152611910818d6116fc565b90508a6060840152828103608084015261192a818b6116fc565b60a084019990995250506001600160a01b039590951660c086015292151560e08501526101008401919091526101208301526101409091015295945050505050565b60208152815160208201526020820151604082015260408201516060820152606082015160808201526000608083015160c060a08401526119b060e08401826116fc565b60a094909401516001600160a01b031660c093909301929092525090919050565b60008083601f8401126119e357600080fd5b50813567ffffffffffffffff8111156119fb57600080fd5b602083019150836020828501011115611a1357600080fd5b9250929050565b60008060008060608587031215611a3057600080fd5b8435935060208501359250604085013567ffffffffffffffff811115611a5557600080fd5b611a61878288016119d1565b95989497509550505050565b60008060008060008060008060008060c08b8d031215611a8c57600080fd5b8a3567ffffffffffffffff80821115611aa457600080fd5b611ab08e838f016119d1565b909c509a5060208d0135915080821115611ac957600080fd5b611ad58e838f016119d1565b909a50985060408d0135915080821115611aee57600080fd5b611afa8e838f016119d1565b909850965060608d0135955060808d0135915080821115611b1a57600080fd5b50611b278d828e016119d1565b9150809450508092505060a08b013590509295989b9194979a5092959850565b60208082526010908201526f13dc9858db19481b9bdd08199bdd5b9960821b604082015260600190565b634e487b7160e01b600052603260045260246000fd5b600181811c90821680611b9b57607f821691505b602082108103611bbb57634e487b7160e01b600052602260045260246000fd5b50919050565b634e487b7160e01b600052601160045260246000fd5b80820281158282048414176103b9576103b9611bc1565b600060018201611c0057611c00611bc1565b5060010190565b634e487b7160e01b600052604160045260246000fd5b601f821115610766576000816000526020600020601f850160051c81016020861015611c465750805b601f850160051c820191505b81811015611c6557828155600101611c52565b505050505050565b815167ffffffffffffffff811115611c8757611c87611c07565b611c9b81611c958454611b87565b84611c1d565b602080601f831160018114611cd05760008415611cb85750858301515b600019600386901b1c1916600185901b178555611c65565b600085815260208120601f198616915b82811015611cff57888601518255948401946001909101908401611ce0565b5085821015611d1d5787850151600019600388901b60f8161c191681555b5050505050600190811b01905550565b81835281816020850137506000828201602090810191909152601f909101601f19169091010190565b858152846020820152608060408201526000611d76608083018587611d2d565b90508260608301529695505050505050565b604081526000611d9c604083018587611d2d565b905082602083015294935050505056fea49807205ce4d355092ef5a8a18f56e8913cf4a201fbe287825b095693c21775a26469706673582212207ee4eeb3308081cbd04b303624bd3666cb49366593ab2a0217e03837b10ef1f064736f6c63430008180033",
  "linkReferences": {},
  "deployedLinkReferences": {}
}