{
  "_format": "hh-sol-artifact-1",
  "contractName": "PassportRegistry",
  "sourceName": "contracts/PassportRegistry.sol",
  "abi": [
    {
      "inputs": [
        {
          "internalType": "address",
          "name": "admin",
          "type": "address"
        }
      ],
      "stateMutability": "nonpayable",
      "type": "constructor"
    },
    {
      "inputs": [],
      "name": "AccessControlBadConfirmation",
      "type": "error"
    },
    {
      "inputs": [
        {
          "internalType": "address",
          "name": "account",
          "type": "address"
        },
        {
          "internalType": "bytes32",
          "name": "neededRole",
          "type": "bytes32"
        }
      ],
      "name": "AccessControlUnauthorizedAccount",
      "type": "error"
    },
    {
      "inputs": [],
      "name": "EnforcedPause",
      "type": "error"
    },
    {
      "inputs": [],
      "name": "ExpectedPause",
      "type": "error"
    },
    {
      "anonymous": false,
      "inputs": [
        {
          "indexed": true,
          "internalType": "address",
          "name": "agency",
          "type": "address"
        },
        {
          "indexed": false,
          "internalType": "string",
          "name": "name",
          "type": "string"
        }
      ],
      "name": "AgencyRegistered",
      "type": "event"
    },
    {
      "anonymous": false,
      "inputs": [
        {
          "indexed": true,
          "internalType": "address",
          "name": "agency",
          "type": "address"
        }
      ],
      "name": "AgencyRevoked",
      "type": "event"
    },
    {
      "anonymous": false,
      "inputs": [
        {
          "indexed": true,
          "internalType": "string",
          "name": "did",
          "type": "string"
        },
        {
          "indexed": true,
          "internalType": "address",
          "name": "agency",
          "type": "address"
        },
        {
          "indexed": false,
          "internalType": "string",
          "name": "credentialType",
          "type": "string"
        },
        {
          "indexed": false,
          "internalType": "string",
          "name": "ipfsHash",
          "type": "string"
        },
        {
          "indexed": false,
          "internalType": "uint256",
          "name": "timestamp",
          "type": "uint256"
        }
      ],
      "name": "CredentialIssued",
      "type": "event"
    },
    {
      "anonymous": false,
      "inputs": [
        {
          "indexed": true,
          "internalType": "string",
          "name": "did",
          "type": "string"
        },
        {
          "indexed": false,
          "internalType": "uint256",
          "name": "credentialIndex",
          "type": "uint256"
        },
        {
          "indexed": true,
          "internalType": "address",
          "name": "agency",
          "type": "address"
        }
      ],
      "name": "CredentialRevoked",
      "type": "event"
    },
    {
      "anonymous": false,
      "inputs": [
        {
          "indexed": true,
          "internalType": "string",
          "name": "did",
          "type": "string"
        },
        {
          "indexed": true,
          "internalType": "bytes32",
          "name": "phoneHash",
          "type": "bytes32"
        },
        {
          "indexed": true,
          "internalType": "address",
          "name": "agency",
          "type": "address"
        },
        {
          "indexed": false,
          "internalType": "uint256",
          "name": "timestamp",
          "type": "uint256"
        }
      ],
      "name": "PassportCreated",
      "type": "event"
    },
    {
      "anonymous": false,
      "inputs": [
        {
          "indexed": false,
          "internalType": "address",
          "name": "account",
          "type": "address"
        }
      ],
      "name": "Paused",
      "type": "event"
    },
    {
      "anonymous": false,
      "inputs": [
        {
          "indexed": true,
          "internalType": "bytes32",
          "name": "role",
          "type": "bytes32"
        },
        {
          "indexed": true,
          "internalType": "bytes32",
          "name": "previousAdminRole",
          "type": "bytes32"
        },
        {
          "indexed": true,
          "internalType": "bytes32",
          "name": "newAdminRole",
          "type": "bytes32"
        }
      ],
      "name": "RoleAdminChanged",
      "type": "event"
    },
    {
      "anonymous": false,
      "inputs": [
        {
          "indexed": true,
          "internalType": "bytes32",
          "name": "role",
          "type": "bytes32"
        },
        {
          "indexed": true,
          "internalType": "address",
          "name": "account",
          "type": "address"
        },
        {
          "indexed": true,
          "internalType": "address",
          "name": "sender",
          "type": "address"
        }
      ],
      "name": "RoleGranted",
      "type": "event"
    },
    {
      "anonymous": false,
      "inputs": [
        {
          "indexed": true,
          "internalType": "bytes32",
          "name": "role",
          "type": "bytes32"
        },
        {
          "indexed": true,
          "internalType": "address",
          "name": "account",
          "type": "address"
        },
        {
          "indexed": true,
          "internalType": "address",
          "name": "sender",
          "type": "address"
        }
      ],
      "name": "RoleRevoked",
      "type": "event"
    },
    {
      "anonymous": false,
      "inputs": [
        {
          "indexed": false,
          "internalType": "address",
          "name": "account",
          "type": "address"
        }
      ],
      "name": "Unpaused",
      "type": "event"
    },
    {
      "inputs": [],
      "name": "ADMIN_ROLE",
      "outputs": [
        {
          "internalType": "bytes32",
          "name": "",
          "type": "bytes32"
        }
      ],
      "stateMutability": "view",
      "type": "function"
    },
    {
      "inputs": [],
      "name": "AGENCY_ROLE",
      "outputs": [
        {
          "internalType": "bytes32",
          "name": "",
          "type": "bytes32"
        }
      ],
      "stateMutability": "view",
      "type": "function"
    },
    {
      "inputs": [],
      "name": "DEFAULT_ADMIN_ROLE",
      "outputs": [
        {
          "internalType": "bytes32",
          "name": "",
          "type": "bytes32"
        }
      ],
      "stateMutability": "view",
      "type": "function"
    },
    {
      "inputs": [
        {
          "internalType": "address",
          "name": "",
          "type": "address"
        }
      ],
      "name": "agencies",
      "outputs": [
        {
          "internalType": "string",
          "name": "name",
          "type": "string"
        },
        {
          "internalType": "bool",
          "name": "active",
          "type": "bool"
        },
        {
          "internalType": "uint256",
          "name": "registeredAt",
          "type": "uint256"
        }
      ],
      "stateMutability": "view",
      "type": "function"
    },
    {
      "inputs": [
        {
          "internalType": "uint256",
          "name": "",
          "type": "uint256"
        }
      ],
      "name": "allDids",
      "outputs": [
        {
          "internalType": "string",
          "name": "",
          "type": "string"
        }
      ],
      "stateMutability": "view",
      "type": "function"
    },
    {
      "inputs": [
        {
          "internalType": "bytes32",
          "name": "phoneHash",
          "type": "bytes32"
        },
        {
          "internalType": "string",
          "name": "did",
          "type": "string"
        },
        {
          "internalType": "uint8",
          "name": "childrenCount",
          "type": "uint8"
        }
      ],
      "name": "createPassport",
      "outputs": [],
      "stateMutability": "nonpayable",
      "type": "function"
    },
    {
      "inputs": [
        {
          "internalType": "string",
          "name": "",
          "type": "string"
        },
        {
          "internalType": "uint256",
          "name": "",
          "type": "uint256"
        }
      ],
      "name": "credentials",
      "outputs": [
        {
          "internalType": "address",
          "name": "agencyAddress",
          "type": "address"
        },
        {
          "internalType": "string",
          "name": "credentialType",
          "type": "string"
        },
        {
          "internalType": "string",
          "name": "ipfsHash",
          "type": "string"
        },
        {
          "internalType": "uint256",
          "name": "issuedAt",
          "type": "uint256"
        },
        {
          "internalType": "uint256",
          "name": "validUntil",
          "type": "uint256"
        },
        {
          "internalType": "bool",
          "name": "revoked",
          "type": "bool"
        }
      ],
      "stateMutability": "view",
      "type": "function"
    },
    {
      "inputs": [
        {
          "internalType": "string",
          "name": "did",
          "type": "string"
        }
      ],
      "name": "getCredentialCount",
      "outputs": [
        {
          "internalType": "uint256",
          "name": "",
          "type": "uint256"
        }
      ],
      "stateMutability": "view",
      "type": "function"
    },
    {
      "inputs": [
        {
          "internalType": "string",
          "name": "did",
          "type": "string"
        }
      ],
      "name": "getCredentials",
      "outputs": [
        {
          "components": [
            {
              "internalType": "address",
              "name": "agencyAddress",
              "type": "address"
            },
            {
              "internalType": "string",
              "name": "credentialType",
              "type": "string"
            },
            {
              "internalType": "string",
              "name": "ipfsHash",
              "type": "string"
            },
            {
              "internalType": "uint256",
              "name": "issuedAt",
              "type": "uint256"
            },
            {
              "internalType": "uint256",
              "name": "validUntil",
              "type": "uint256"
            },
            {
              "internalType": "bool",
              "name": "revoked",
              "type": "bool"
            }
          ],
          "internalType": "struct PassportRegistry.Credential[]",
          "name": "",
          "type": "tuple[]"
        }
      ],
      "stateMutability": "view",
      "type": "function"
    },
    {
      "inputs": [
        {
          "internalType": "bytes32",
          "name": "phoneHash",
          "type": "bytes32"
        }
      ],
      "name": "getDidByPhone",
      "outputs": [
        {
          "internalType": "string",
          "name": "",
          "type": "string"
        }
      ],
      "stateMutability": "view",
      "type": "function"
    },
    {
      "inputs": [
        {
          "internalType": "string",
          "name": "did",
          "type": "string"
        }
      ],
      "name": "getPassport",
      "outputs": [
        {
          "components": [
            {
              "internalType": "bytes32",
              "name": "phoneHash",
              "type": "bytes32"
            },
            {
              "internalType": "string",
              "name": "did",
              "type": "string"
            },
            {
              "internalType": "uint256",
              "name": "createdAt",
              "type": "uint256"
            },
            {
              "internalType": "uint256",
              "name": "updatedAt",
              "type": "uint256"
            },
            {
              "internalType": "uint8",
              "name": "childrenCount",
              "type": "uint8"
            },
            {
              "internalType": "bool",
              "name": "exists",
              "type": "bool"
            },
            {
              "internalType": "address",
              "name": "createdByAgency",
              "type": "address"
            }
          ],
          "internalType": "struct PassportRegistry.Passport",
          "name": "",
          "type": "tuple"
        }
      ],
      "stateMutability": "view",
      "type": "function"
    },
    {
      "inputs": [
        {
          "internalType": "bytes32",
          "name": "role",
          "type": "bytes32"
        }
      ],
      "name": "getRoleAdmin",
      "outputs": [
        {
          "internalType": "bytes32",
          "name": "",
          "type": "bytes32"
        }
      ],
      "stateMutability": "view",
      "type": "function"
    },
    {
      "inputs": [
        {
          "internalType": "bytes32",
          "name": "role",
          "type": "bytes32"
        },
        {
          "internalType": "address",
          "name": "account",
          "type": "address"
        }
      ],
      "name": "grantRole",
      "outputs": [],
      "stateMutability": "nonpayable",
      "type": "function"
    },
    {
      "inputs": [
        {
          "internalType": "bytes32",
          "name": "role",
          "type": "bytes32"
        },
        {
          "internalType": "address",
          "name": "account",
          "type": "address"
        }
      ],
      "name": "hasRole",
      "outputs": [
        {
          "internalType": "bool",
          "name": "",
          "type": "bool"
        }
      ],
      "stateMutability": "view",
      "type": "function"
    },
    {
      "inputs": [
        {
          "internalType": "string",
          "name": "did",
          "type": "string"
        },
        {
          "internalType": "string",
          "name": "credentialType",
          "type": "string"
        },
        {
          "internalType": "string",
          "name": "ipfsHash",
          "type": "string"
        },
        {
          "internalType": "uint256",
          "name": "validUntil",
          "type": "uint256"
        }
      ],
      "name": "issueCredential",
      "outputs": [],
      "stateMutability": "nonpayable",
      "type": "function"
    },
    {
      "inputs": [
        {
          "internalType": "string",
          "name": "",
          "type": "string"
        }
      ],
      "name": "passports",
      "outputs": [
        {
          "internalType": "bytes32",
          "name": "phoneHash",
          "type": "bytes32"
        },
        {
          "internalType": "string",
          "name": "did",
          "type": "string"
        },
        {
          "internalType": "uint256",
          "name": "createdAt",
          "type": "uint256"
        },
        {
          "internalType": "uint256",
          "name": "updatedAt",
          "type": "uint256"
        },
        {
          "internalType": "uint8",
          "name": "childrenCount",
          "type": "uint8"
        },
        {
          "internalType": "bool",
          "name": "exists",
          "type": "bool"
        },
        {
          "internalType": "address",
          "name": "createdByAgency",
          "type": "address"
        }
      ],
      "stateMutability": "view",
      "type": "function"
    },
    {
      "inputs": [],
      "name": "pause",
      "outputs": [],
      "stateMutability": "nonpayable",
      "type": "function"
    },
    {
      "inputs": [],
      "name": "paused",
      "outputs": [
        {
          "internalType": "bool",
          "name": "",
          "type": "bool"
        }
      ],
      "stateMutability": "view",
      "type": "function"
    },
    {
      "inputs": [
        {
          "internalType": "bytes32",
          "name": "",
          "type": "bytes32"
        }
      ],
      "name": "phoneHashToDid",
      "outputs": [
        {
          "internalType": "string",
          "name": "",
          "type": "string"
        }
      ],
      "stateMutability": "view",
      "type": "function"
    },
    {
      "inputs": [
        {
          "internalType": "address",
          "name": "agencyAddress",
          "type": "address"
        },
        {
          "internalType": "string",
          "name": "name",
          "type": "string"
        }
      ],
      "name": "registerAgency",
      "outputs": [],
      "stateMutability": "nonpayable",
      "type": "function"
    },
    {
      "inputs": [
        {
          "internalType": "bytes32",
          "name": "role",
          "type": "bytes32"
        },
        {
          "internalType": "address",
          "name": "callerConfirmation",
          "type": "address"
        }
      ],
      "name": "renounceRole",
      "outputs": [],
      "stateMutability": "nonpayable",
      "type": "function"
    },
    {
      "inputs": [
        {
          "internalType": "address",
          "name": "agencyAddress",
          "type": "address"
        }
      ],
      "name": "revokeAgency",
      "outputs": [],
      "stateMutability": "nonpayable",
      "type": "function"
    },
    {
      "inputs": [
        {
          "internalType": "string",
          "name": "did",
          "type": "string"
        },
        {
          "internalType": "uint256",
          "name": "index",
          "type": "uint256"
        }
      ],
      "name": "revokeCredential",
      "outputs": [],
      "stateMutability": "nonpayable",
      "type": "function"
    },
    {
      "inputs": [
        {
          "internalType": "bytes32",
          "name": "role",
          "type": "bytes32"
        },
        {
          "internalType": "address",
          "name": "account",
          "type": "address"
        }
      ],
      "name": "revokeRole",
      "outputs": [],
      "stateMutability": "nonpayable",
      "type": "function"
    },
    {
      "inputs": [
        {
          "internalType": "bytes4",
          "name": "interfaceId",
          "type": "bytes4"
        }
      ],
      "name": "supportsInterface",
      "outputs": [
        {
          "internalType": "bool",
          "name": "",
          "type": "bool"
        }
      ],
      "stateMutability": "view",
      "type": "function"
    },
    {
      "inputs": [],
      "name": "totalPassports",
      "outputs": [
        {
          "internalType": "uint256",
          "name": "",
          "type": "uint256"
        }
      ],
      "stateMutability": "view",
      "type": "function"
    },
    {
      "inputs": [],
      "name": "unpause",
      "outputs": [],
      "stateMutability": "nonpayable",
      "type": "function"
    }
  ],
  "bytecode": "0x60806040523480156200001157600080fd5b50604051620023d6380380620023d6833981016040819052620000349162000125565b6200004160008262000076565b506200006e7fa49807205ce4d355092ef5a8a18f56e8913cf4a201fbe287825b095693c217758262000076565b505062000157565b6000828152602081815260408083206001600160a01b038516845290915281205460ff166200011b576000838152602081815260408083206001600160a01b03861684529091529020805460ff19166001179055620000d23390565b6001600160a01b0316826001600160a01b0316847f2f8788117e7eff1d82e926ec794901d17c78024a50270940304540a733656f0d60405160405180910390a45060016200011f565b5060005b92915050565b6000602082840312156200013857600080fd5b81516001600160a01b03811681146200015057600080fd5b9392505050565b61226f80620001676000396000f3fe608060405234801561001057600080fd5b50600436106101a95760003560e01c80637e8b4bed116100f9578063b414db1611610097578063d547741f11610071578063d547741f146103c1578063dfac2e22146103d4578063f6b1a22b146103e7578063f8913cd21461040757600080fd5b8063b414db1614610388578063c88118a01461039b578063d50e72fc146103ae57600080fd5b8063904a6751116100d3578063904a67511461033a57806391d148541461035a5780639414311f1461036d578063a217fddf1461038057600080fd5b80637e8b4bed146102f9578063814b12901461031f5780638456cb591461033257600080fd5b806336568abe1161016657806359738b9e1161014057806359738b9e146102b35780635c975abb146102c6578063625724e3146102d157806375b238fc146102e457600080fd5b806336568abe146102835780633f4ba83a146102965780634d0adefd1461029e57600080fd5b806301ffc9a7146101ae5780630eaedc60146101d65780630fdb1606146101f8578063212ea57a1461021d578063248a9ca31461023d5780632f2ff15d1461026e575b600080fd5b6101c16101bc3660046118cb565b61040f565b60405190151581526020015b60405180910390f35b6101e96101e4366004611918565b610446565b6040516101cd93929190611979565b61020b610206366004611a41565b6104f4565b6040516101cd96959493929190611a86565b61023061022b366004611add565b610678565b6040516101cd9190611af6565b61026061024b366004611add565b60009081526020819052604090206001015490565b6040519081526020016101cd565b61028161027c366004611b09565b610712565b005b610281610291366004611b09565b61073d565b610281610775565b6102606000805160206121fa83398151915281565b6102816102c1366004611b7e565b610798565b60015460ff166101c1565b6102816102df366004611918565b6108ab565b61026060008051602061221a83398151915281565b61030c610307366004611bd1565b610937565b6040516101cd9796959493929190611c0e565b61023061032d366004611add565b610a18565b610281610a43565b61034d610348366004611c5f565b610a63565b6040516101cd9190611ca1565b6101c1610368366004611b09565b610c00565b61026061037b366004611c5f565b610c29565b610260600081565b610230610396366004611add565b610c55565b6102816103a9366004611d13565b610cf7565b6102816103bc366004611d78565b611002565b6102816103cf366004611b09565b61128e565b6102816103e2366004611e1b565b6112b3565b6103fa6103f5366004611c5f565b6114ce565b6040516101cd9190611e67565b600554610260565b60006001600160e01b03198216637965db0b60e01b148061044057506301ffc9a760e01b6001600160e01b03198316145b92915050565b60066020526000908152604090208054819061046190611f25565b80601f016020809104026020016040519081016040528092919081815260200182805461048d90611f25565b80156104da5780601f106104af576101008083540402835291602001916104da565b820191906000526020600020905b8154815290600101906020018083116104bd57829003601f168201915b505050506001830154600290930154919260ff1691905083565b8151602081840181018051600382529282019185019190912091905280548290811061051f57600080fd5b6000918252602090912060069091020180546001820180546001600160a01b03909216945091925061055090611f25565b80601f016020809104026020016040519081016040528092919081815260200182805461057c90611f25565b80156105c95780601f1061059e576101008083540402835291602001916105c9565b820191906000526020600020905b8154815290600101906020018083116105ac57829003601f168201915b5050505050908060020180546105de90611f25565b80601f016020809104026020016040519081016040528092919081815260200182805461060a90611f25565b80156106575780601f1061062c57610100808354040283529160200191610657565b820191906000526020600020905b81548152906001019060200180831161063a57829003601f168201915b50505050600383015460048401546005909401549293909290915060ff1686565b6004602052600090815260409020805461069190611f25565b80601f01602080910402602001604051908101604052809291908181526020018280546106bd90611f25565b801561070a5780601f106106df5761010080835404028352916020019161070a565b820191906000526020600020905b8154815290600101906020018083116106ed57829003601f168201915b505050505081565b60008281526020819052604090206001015461072d816116b1565b61073783836116bb565b50505050565b6001600160a01b03811633146107665760405163334bd91960e11b815260040160405180910390fd5b610770828261174d565b505050565b60008051602061221a83398151915261078d816116b1565b6107956117b8565b50565b60008051602061221a8339815191526107b0816116b1565b604051806060016040528084848080601f016020809104026020016040519081016040528093929190818152602001838380828437600092018290525093855250506001602080850191909152426040948501526001600160a01b0389168352600690525020815181906108249082611faf565b50602082015160018201805460ff19169115159190911790556040909101516002909101556108616000805160206121fa833981519152856116bb565b50836001600160a01b03167fe35c6434731e0bf1c91789b5313da0c9a0d06b094c0a0b67d9812c8aca40d6f1848460405161089d929190612098565b60405180910390a250505050565b60008051602061221a8339815191526108c3816116b1565b6001600160a01b0382166000908152600660205260409020600101805460ff191690556108fe6000805160206121fa8339815191528361174d565b506040516001600160a01b038316907f11e5cd337d81f17b83e9a36b868b7fa5e2a1467c6154a573790cd4107e5bacc290600090a25050565b80516020818301810180516002825292820191909301209152805460018201805491929161096490611f25565b80601f016020809104026020016040519081016040528092919081815260200182805461099090611f25565b80156109dd5780601f106109b2576101008083540402835291602001916109dd565b820191906000526020600020905b8154815290600101906020018083116109c057829003601f168201915b505050600284015460038501546004909501549394909390925060ff8082169250610100820416906001600160a01b03620100009091041687565b60058181548110610a2857600080fd5b90600052602060002001600091509050805461069190611f25565b60008051602061221a833981519152610a5b816116b1565b61079561180a565b6040805160e081018252600080825260606020830181905282840182905282018190526080820181905260a0820181905260c08201529051600290610aab90859085906120ac565b9081526040519081900360200190206004015460ff61010090910416610aec5760405162461bcd60e51b8152600401610ae3906120bc565b60405180910390fd5b60028383604051610afe9291906120ac565b90815260200160405180910390206040518060e001604052908160008201548152602001600182018054610b3190611f25565b80601f0160208091040260200160405190810160405280929190818152602001828054610b5d90611f25565b8015610baa5780601f10610b7f57610100808354040283529160200191610baa565b820191906000526020600020905b815481529060010190602001808311610b8d57829003601f168201915b5050509183525050600282015460208201526003820154604082015260049091015460ff8082166060840152610100820416151560808301526201000090046001600160a01b031660a090910152905092915050565b6000918252602082815260408084206001600160a01b0393909316845291905290205460ff1690565b600060038383604051610c3d9291906120ac565b90815260405190819003602001902054905092915050565b6000818152600460205260409020805460609190610c7290611f25565b80601f0160208091040260200160405190810160405280929190818152602001828054610c9e90611f25565b8015610ceb5780601f10610cc057610100808354040283529160200191610ceb565b820191906000526020600020905b815481529060010190602001808311610cce57829003601f168201915b50505050509050919050565b6000805160206121fa833981519152610d0f816116b1565b610d17611845565b60028484604051610d299291906120ac565b9081526040519081900360200190206004015460ff6101009091041615610d925760405162461bcd60e51b815260206004820152601760248201527f50617373706f727420616c7265616479206578697374730000000000000000006044820152606401610ae3565b60008581526004602052604090208054610dab90611f25565b159050610dfa5760405162461bcd60e51b815260206004820152601860248201527f50686f6e6520616c7265616479207265676973746572656400000000000000006044820152606401610ae3565b82610e3d5760405162461bcd60e51b81526020600482015260136024820152724449442063616e6e6f7420626520656d70747960681b6044820152606401610ae3565b6040518060e0016040528086815260200185858080601f016020809104026020016040519081016040528093929190818152602001838380828437600092019190915250505090825250426020820181905260408083019190915260ff85166060830152600160808301523360a09092019190915251600290610ec390879087906120ac565b9081526040516020918190038201902082518155908201516001820190610eea9082611faf565b5060408281015160028301556060830151600383015560808301516004928301805460a086015160c0909601516001600160a01b0316620100000262010000600160b01b03199615156101000261ffff1990921660ff90941693909317179490941617909255600087815260209190915220610f678486836120e8565b50600580546001810182556000919091527f036b6384b5eca791c62761152d0c79bb0604c104a5fb6f4eb0703f3154bb3db001610fa58486836120e8565b50336001600160a01b0316858585604051610fc19291906120ac565b604051908190038120428252907fb69cc8acfb98c46c6231f912006ac0088a8c0554e57c7dc340c19c23d6f3d9429060200160405180910390a45050505050565b6000805160206121fa83398151915261101a816116b1565b611022611845565b600288886040516110349291906120ac565b9081526040519081900360200190206004015460ff6101009091041661106c5760405162461bcd60e51b8152600401610ae3906120bc565b826110ae5760405162461bcd60e51b815260206004820152601260248201527112541194c81a185cda081c995c5d5a5c995960721b6044820152606401610ae3565b600388886040516110c09291906120ac565b90815260200160405180910390206040518060c00160405280336001600160a01b0316815260200188888080601f016020809104026020016040519081016040528093929190818152602001838380828437600092019190915250505090825250604080516020601f89018190048102820181019092528781529181019190889088908190840183828082843760009201829052509385525050426020808501919091526040840188905260609093018290525083546001808201865594825290829020835160069092020180546001600160a01b0319166001600160a01b039092169190911781559082015191929091908201906111bf9082611faf565b50604082015160028201906111d49082611faf565b50606082015160038201556080820151600482015560a0909101516005909101805460ff19169115159190911790556040514290600290611218908b908b906120ac565b90815260405190819003602001812060030191909155339061123d908a908a906120ac565b60405180910390207f1336eacec5988e9a6985d9e6c3ee051cdf0296e5eeea03b27c92d8499156d4f4888888884260405161127c9594939291906121a9565b60405180910390a35050505050505050565b6000828152602081905260409020600101546112a9816116b1565b610737838361174d565b6000805160206121fa8339815191526112cb816116b1565b600284846040516112dd9291906120ac565b9081526040519081900360200190206004015460ff610100909104166113155760405162461bcd60e51b8152600401610ae3906120bc565b600384846040516113279291906120ac565b9081526040519081900360200190205482106113855760405162461bcd60e51b815260206004820152601e60248201527f43726564656e7469616c20696e646578206f7574206f6620626f756e647300006044820152606401610ae3565b336001600160a01b0316600385856040516113a19291906120ac565b908152602001604051809103902083815481106113c0576113c06121e3565b60009182526020909120600690910201546001600160a01b0316146114275760405162461bcd60e51b815260206004820152601e60248201527f4f6e6c792069737375696e67206167656e63792063616e207265766f6b6500006044820152606401610ae3565b60016003858560405161143b9291906120ac565b9081526020016040518091039020838154811061145a5761145a6121e3565b60009182526020909120600690910201600501805460ff1916911515919091179055604051339061148e90869086906120ac565b604051908190038120848252907fd4c5d5aad974184af17cf15461fc872182d2c55a2e2788a6d9e2a9141fa33ab59060200160405180910390a350505050565b6060600383836040516114e29291906120ac565b9081526020016040518091039020805480602002602001604051908101604052809291908181526020016000905b828210156116a55760008481526020908190206040805160c081019091526006850290910180546001600160a01b03168252600181018054929391929184019161155990611f25565b80601f016020809104026020016040519081016040528092919081815260200182805461158590611f25565b80156115d25780601f106115a7576101008083540402835291602001916115d2565b820191906000526020600020905b8154815290600101906020018083116115b557829003601f168201915b505050505081526020016002820180546115eb90611f25565b80601f016020809104026020016040519081016040528092919081815260200182805461161790611f25565b80156116645780601f1061163957610100808354040283529160200191611664565b820191906000526020600020905b81548152906001019060200180831161164757829003601f168201915b505050918352505060038201546020808301919091526004830154604083015260059092015460ff1615156060909101529082526001929092019101611510565b50505050905092915050565b610795813361186b565b60006116c78383610c00565b611745576000838152602081815260408083206001600160a01b03861684529091529020805460ff191660011790556116fd3390565b6001600160a01b0316826001600160a01b0316847f2f8788117e7eff1d82e926ec794901d17c78024a50270940304540a733656f0d60405160405180910390a4506001610440565b506000610440565b60006117598383610c00565b15611745576000838152602081815260408083206001600160a01b0386168085529252808320805460ff1916905551339286917ff6391f5c32d9c69d2a47ea670b442974b53935d1edc7fd64eb21e047a839171b9190a4506001610440565b6117c06118a8565b6001805460ff191690557f5db9ee0a495bf2e6ff9c91a7834c1ba4fdd244a5e8aa4e537bd38aeae4b073aa335b6040516001600160a01b03909116815260200160405180910390a1565b611812611845565b6001805460ff1916811790557f62e78cea01bee320cd4e420270b5ea74000d11b0c9f74754ebdbfc544b05a258336117ed565b60015460ff16156118695760405163d93c066560e01b815260040160405180910390fd5b565b6118758282610c00565b6118a45760405163e2517d3f60e01b81526001600160a01b038216600482015260248101839052604401610ae3565b5050565b60015460ff1661186957604051638dfc202b60e01b815260040160405180910390fd5b6000602082840312156118dd57600080fd5b81356001600160e01b0319811681146118f557600080fd5b9392505050565b80356001600160a01b038116811461191357600080fd5b919050565b60006020828403121561192a57600080fd5b6118f5826118fc565b6000815180845260005b818110156119595760208185018101518683018201520161193d565b506000602082860101526020601f19601f83011685010191505092915050565b60608152600061198c6060830186611933565b93151560208301525060400152919050565b634e487b7160e01b600052604160045260246000fd5b600082601f8301126119c557600080fd5b813567ffffffffffffffff808211156119e0576119e061199e565b604051601f8301601f19908116603f01168101908282118183101715611a0857611a0861199e565b81604052838152866020858801011115611a2157600080fd5b836020870160208301376000602085830101528094505050505092915050565b60008060408385031215611a5457600080fd5b823567ffffffffffffffff811115611a6b57600080fd5b611a77858286016119b4565b95602094909401359450505050565b6001600160a01b038716815260c060208201819052600090611aaa90830188611933565b8281036040840152611abc8188611933565b606084019690965250506080810192909252151560a0909101529392505050565b600060208284031215611aef57600080fd5b5035919050565b6020815260006118f56020830184611933565b60008060408385031215611b1c57600080fd5b82359150611b2c602084016118fc565b90509250929050565b60008083601f840112611b4757600080fd5b50813567ffffffffffffffff811115611b5f57600080fd5b602083019150836020828501011115611b7757600080fd5b9250929050565b600080600060408486031215611b9357600080fd5b611b9c846118fc565b9250602084013567ffffffffffffffff811115611bb857600080fd5b611bc486828701611b35565b9497909650939450505050565b600060208284031215611be357600080fd5b813567ffffffffffffffff811115611bfa57600080fd5b611c06848285016119b4565b949350505050565b87815260e060208201526000611c2760e0830189611933565b604083019790975250606081019490945260ff929092166080840152151560a08301526001600160a01b031660c09091015292915050565b60008060208385031215611c7257600080fd5b823567ffffffffffffffff811115611c8957600080fd5b611c9585828601611b35565b90969095509350505050565b60208152815160208201526000602083015160e06040840152611cc8610100840182611933565b9050604084015160608401526060840151608084015260ff60808501511660a084015260a0840151151560c084015260018060a01b0360c08501511660e08401528091505092915050565b60008060008060608587031215611d2957600080fd5b84359350602085013567ffffffffffffffff811115611d4757600080fd5b611d5387828801611b35565b909450925050604085013560ff81168114611d6d57600080fd5b939692955090935050565b60008060008060008060006080888a031215611d9357600080fd5b873567ffffffffffffffff80821115611dab57600080fd5b611db78b838c01611b35565b909950975060208a0135915080821115611dd057600080fd5b611ddc8b838c01611b35565b909750955060408a0135915080821115611df557600080fd5b50611e028a828b01611b35565b989b979a50959894979596606090950135949350505050565b600080600060408486031215611e3057600080fd5b833567ffffffffffffffff811115611e4757600080fd5b611e5386828701611b35565b909790965060209590950135949350505050565b600060208083018184528085518083526040925060408601915060408160051b87010184880160005b83811015611f1757888303603f19018552815180516001600160a01b031684528781015160c089860181905290611ec982870182611933565b9150508782015185820389870152611ee18282611933565b606084810151908801526080808501519088015260a0938401511515939096019290925250509386019390860190600101611e90565b509098975050505050505050565b600181811c90821680611f3957607f821691505b602082108103611f5957634e487b7160e01b600052602260045260246000fd5b50919050565b601f821115610770576000816000526020600020601f850160051c81016020861015611f885750805b601f850160051c820191505b81811015611fa757828155600101611f94565b505050505050565b815167ffffffffffffffff811115611fc957611fc961199e565b611fdd81611fd78454611f25565b84611f5f565b602080601f8311600181146120125760008415611ffa5750858301515b600019600386901b1c1916600185901b178555611fa7565b600085815260208120601f198616915b8281101561204157888601518255948401946001909101908401612022565b508582101561205f5787850151600019600388901b60f8161c191681555b5050505050600190811b01905550565b81835281816020850137506000828201602090810191909152601f909101601f19169091010190565b602081526000611c0660208301848661206f565b8183823760009101908152919050565b60208082526012908201527114185cdcdc1bdc9d081b9bdd08199bdd5b9960721b604082015260600190565b67ffffffffffffffff8311156121005761210061199e565b6121148361210e8354611f25565b83611f5f565b6000601f84116001811461214857600085156121305750838201355b600019600387901b1c1916600186901b1783556121a2565b600083815260209020601f19861690835b828110156121795786850135825560209485019460019092019101612159565b50868210156121965760001960f88860031b161c19848701351681555b505060018560011b0183555b5050505050565b6060815260006121bd60608301878961206f565b82810360208401526121d081868861206f565b9150508260408301529695505050505050565b634e487b7160e01b600052603260045260246000fdfeb65a831710346acfae65a808a37f27ab439206a966e9a4ab4035af91c51c8dd1a49807205ce4d355092ef5a8a18f56e8913cf4a201fbe287825b095693c21775a26469706673582212200628fd618f95c9da787a3e7ea62d854c3e1af87417670ccb70dc6546444a2f4e64736f6c63430008180033",
  "linkReferences": {},
  "deployedLinkReferences": {}
}