{
  "_format": "hh-sol-artifact-1",
  "contractName": "Disburse",
  "sourceName": "contracts/Disburse.sol",
  "abi": [
    {
      "inputs": [
        {
          "internalType": "address",
          "name": "admin",
          "type": "address"
        },
        {
          "internalType": "address",
          "name": "cUSDAddress",
          "type": "address"
        },
        {
          "internalType": "address",
          "name": "_passportRegistry",
          "type": "address"
        }
      ],
      "stateMutability": "nonpayable",
      "type": "constructor"
    },
    {
      "inputs": [],
      "name": "AccessControlBadConfirmation",
      "type": "error"
    },
    {
      "inputs": [
        {
          "internalType": "address",
          "name": "account",
          "type": "address"
        },
        {
          "internalType": "bytes32",
          "name": "neededRole",
          "type": "bytes32"
        }
      ],
      "name": "AccessControlUnauthorizedAccount",
      "type": "error"
    },
    {
      "inputs": [],
      "name": "EnforcedPause",
      "type": "error"
    },
    {
      "inputs": [],
      "name": "ExpectedPause",
      "type": "error"
    },
    {
      "inputs": [],
      "name": "ReentrancyGuardReentrantCall",
      "type": "error"
    },
    {
      "anonymous": false,
      "inputs": [
        {
          "indexed": true,
          "internalType": "address",
          "name": "agency",
          "type": "address"
        },
        {
          "indexed": false,
          "internalType": "uint256",
          "name": "amount",
          "type": "uint256"
        }
      ],
      "name": "Deposited",
      "type": "event"
    },
    {
      "anonymous": false,
      "inputs": [
        {
          "indexed": true,
          "internalType": "string",
          "name": "did",
          "type": "string"
        },
        {
          "indexed": true,
          "internalType": "address",
          "name": "recipient",
          "type": "address"
        },
        {
          "indexed": true,
          "internalType": "address",
          "name": "agency",
          "type": "address"
        },
        {
          "indexed": false,
          "internalType": "uint256",
          "name": "amount",
          "type": "uint256"
        },
        {
          "indexed": false,
          "internalType": "string",
          "name": "reason",
          "type": "string"
        },
        {
          "indexed": false,
          "internalType": "uint256",
          "name": "timestamp",
          "type": "uint256"
        }
      ],
      "name": "Disbursed",
      "type": "event"
    },
    {
      "anonymous": false,
      "inputs": [
        {
          "indexed": false,
          "internalType": "address",
          "name": "account",
          "type": "address"
        }
      ],
      "name": "Paused",
      "type": "event"
    },
    {
      "anonymous": false,
      "inputs": [
        {
          "indexed": true,
          "internalType": "bytes32",
          "name": "role",
          "type": "bytes32"
        },
        {
          "indexed": true,
          "internalType": "bytes32",
          "name": "previousAdminRole",
          "type": "bytes32"
        },
        {
          "indexed": true,
          "internalType": "bytes32",
          "name": "newAdminRole",
          "type": "bytes32"
        }
      ],
      "name": "RoleAdminChanged",
      "type": "event"
    },
    {
      "anonymous": false,
      "inputs": [
        {
          "indexed": true,
          "internalType": "bytes32",
          "name": "role",
          "type": "bytes32"
        },
        {
          "indexed": true,
          "internalType": "address",
          "name": "account",
          "type": "address"
        },
        {
          "indexed": true,
          "internalType": "address",
          "name": "sender",
          "type": "address"
        }
      ],
      "name": "RoleGranted",
      "type": "event"
    },
    {
      "anonymous": false,
      "inputs": [
        {
          "indexed": true,
          "internalType": "bytes32",
          "name": "role",
          "type": "bytes32"
        },
        {
          "indexed": true,
          "internalType": "address",
          "name": "account",
          "type": "address"
        },
        {
          "indexed": true,
          "internalType": "address",
          "name": "sender",
          "type": "address"
        }
      ],
      "name": "RoleRevoked",
      "type": "event"
    },
    {
      "anonymous": false,
      "inputs": [
        {
          "indexed": false,
          "internalType": "address",
          "name": "account",
          "type": "address"
        }
      ],
      "name": "Unpaused",
      "type": "event"
    },
    {
      "anonymous": false,
      "inputs": [
        {
          "indexed": true,
          "internalType": "address",
          "name": "agency",
          "type": "address"
        },
        {
          "indexed": false,
          "internalType": "uint256",
          "name": "amount",
          "type": "uint256"
        }
      ],
      "name": "Withdrawn",
      "type": "event"
    },
    {
      "inputs": [],
      "name": "ADMIN_ROLE",
      "outputs": [
        {
          "internalType": "bytes32",
          "name": "",
          "type": "bytes32"
        }
      ],
      "stateMutability": "view",
      "type": "function"
    },
    {
      "inputs": [],
      "name": "AGENCY_ROLE",
      "outputs": [
        {
          "internalType": "bytes32",
          "name": "",
          "type": "bytes32"
        }
      ],
      "stateMutability": "view",
      "type": "function"
    },
    {
      "inputs": [],
      "name": "DEFAULT_ADMIN_ROLE",
      "outputs": [
        {
          "internalType": "bytes32",
          "name": "",
          "type": "bytes32"
        }
      ],
      "stateMutability": "view",
      "type": "function"
    },
    {
      "inputs": [
        {
          "internalType": "address",
          "name": "",
          "type": "address"
        }
      ],
      "name": "agencyBalances",
      "outputs": [
        {
          "internalType": "uint256",
          "name": "",
          "type": "uint256"
        }
      ],
      "stateMutability": "view",
      "type": "function"
    },
    {
      "inputs": [],
      "name": "cUSD",
      "outputs": [
        {
          "internalType": "contract IERC20",
          "name": "",
          "type": "address"
        }
      ],
      "stateMutability": "view",
      "type": "function"
    },
    {
      "inputs": [
        {
          "internalType": "uint256",
          "name": "amount",
          "type": "uint256"
        }
      ],
      "name": "deposit",
      "outputs": [],
      "stateMutability": "nonpayable",
      "type": "function"
    },
    {
      "inputs": [
        {
          "internalType": "string",
          "name": "did",
          "type": "string"
        },
        {
          "internalType": "address",
          "name": "recipient",
          "type": "address"
        },
        {
          "internalType": "uint256",
          "name": "amount",
          "type": "uint256"
        },
        {
          "internalType": "string",
          "name": "reason",
          "type": "string"
        }
      ],
      "name": "disburse",
      "outputs": [],
      "stateMutability": "nonpayable",
      "type": "function"
    },
    {
      "inputs": [
        {
          "internalType": "uint256",
          "name": "",
          "type": "uint256"
        }
      ],
      "name": "disbursements",
      "outputs": [
        {
          "internalType": "string",
          "name": "did",
          "type": "string"
        },
        {
          "internalType": "address",
          "name": "recipient",
          "type": "address"
        },
        {
          "internalType": "uint256",
          "name": "amount",
          "type": "uint256"
        },
        {
          "internalType": "string",
          "name": "reason",
          "type": "string"
        },
        {
          "internalType": "address",
          "name": "agency",
          "type": "address"
        },
        {
          "internalType": "uint256",
          "name": "timestamp",
          "type": "uint256"
        }
      ],
      "stateMutability": "view",
      "type": "function"
    },
    {
      "inputs": [
        {
          "internalType": "uint256",
          "name": "index",
          "type": "uint256"
        }
      ],
      "name": "getDisbursement",
      "outputs": [
        {
          "components": [
            {
              "internalType": "string",
              "name": "did",
              "type": "string"
            },
            {
              "internalType": "address",
              "name": "recipient",
              "type": "address"
            },
            {
              "internalType": "uint256",
              "name": "amount",
              "type": "uint256"
            },
            {
              "internalType": "string",
              "name": "reason",
              "type": "string"
            },
            {
              "internalType": "address",
              "name": "agency",
              "type": "address"
            },
            {
              "internalType": "uint256",
              "name": "timestamp",
              "type": "uint256"
            }
          ],
          "internalType": "struct Disburse.DisbursementRecord",
          "name": "",
          "type": "tuple"
        }
      ],
      "stateMutability": "view",
      "type": "function"
    },
    {
      "inputs": [
        {
          "internalType": "bytes32",
          "name": "role",
          "type": "bytes32"
        }
      ],
      "name": "getRoleAdmin",
      "outputs": [
        {
          "internalType": "bytes32",
          "name": "",
          "type": "bytes32"
        }
      ],
      "stateMutability": "view",
      "type": "function"
    },
    {
      "inputs": [
        {
          "internalType": "bytes32",
          "name": "role",
          "type": "bytes32"
        },
        {
          "internalType": "address",
          "name": "account",
          "type": "address"
        }
      ],
      "name": "grantRole",
      "outputs": [],
      "stateMutability": "nonpayable",
      "type": "function"
    },
    {
      "inputs": [
        {
          "internalType": "bytes32",
          "name": "role",
          "type": "bytes32"
        },
        {
          "internalType": "address",
          "name": "account",
          "type": "address"
        }
      ],
      "name": "hasRole",
      "outputs": [
        {
          "internalType": "bool",
          "name": "",
          "type": "bool"
        }
      ],
      "stateMutability": "view",
      "type": "function"
    },
    {
      "inputs": [],
      "name": "passportRegistry",
      "outputs": [
        {
          "internalType": "address",
          "name": "",
          "type": "address"
        }
      ],
      "stateMutability": "view",
      "type": "function"
    },
    {
      "inputs": [],
      "name": "pause",
      "outputs": [],
      "stateMutability": "nonpayable",
      "type": "function"
    },
    {
      "inputs": [],
      "name": "paused",
      "outputs": [
        {
          "internalType": "bool",
          "name": "",
          "type": "bool"
        }
      ],
      "stateMutability": "view",
      "type": "function"
    },
    {
      "inputs": [
        {
          "internalType": "address",
          "name": "agency",
          "type": "address"
        }
      ],
      "name": "registerAgency",
      "outputs": [],
      "stateMutability": "nonpayable",
      "type": "function"
    },
    {
      "inputs": [
        {
          "internalType": "bytes32",
          "name": "role",
          "type": "bytes32"
        },
        {
          "internalType": "address",
          "name": "callerConfirmation",
          "type": "address"
        }
      ],
      "name": "renounceRole",
      "outputs": [],
      "stateMutability": "nonpayable",
      "type": "function"
    },
    {
      "inputs": [
        {
          "internalType": "bytes32",
          "name": "role",
          "type": "bytes32"
        },
        {
          "internalType": "address",
          "name": "account",
          "type": "address"
        }
      ],
      "name": "revokeRole",
      "outputs": [],
      "stateMutability": "nonpayable",
      "type": "function"
    },
    {
      "inputs": [
        {
          "internalType": "bytes4",
          "name": "interfaceId",
          "type": "bytes4"
        }
      ],
      "name": "supportsInterface",
      "outputs": [
        {
          "internalType": "bool",
          "name": "",
          "type": "bool"
        }
      ],
      "stateMutability": "view",
      "type": "function"
    },
    {
      "inputs": [],
      "name": "totalDisbursedAllTime",
      "outputs": [
        {
          "internalType": "uint256",
          "name": "",
          "type": "uint256"
        }
      ],
      "stateMutability": "view",
      "type": "function"
    },
    {
      "inputs": [
        {
          "internalType": "string",
          "name": "",
          "type": "string"
        }
      ],
      "name": "totalDisbursedToDid",
      "outputs": [
        {
          "internalType": "uint256",
          "name": "",
          "type": "uint256"
        }
      ],
      "stateMutability": "view",
      "type": "function"
    },
    {
      "inputs": [],
      "name": "totalDisbursements",
      "outputs": [
        {
          "internalType": "uint256",
          "name": "",
          "type": "uint256"
        }
      ],
      "stateMutability": "view",
      "type": "function"
    },
    {
      "inputs": [],
      "name": "unpause",
      "outputs": [],
      "stateMutability": "nonpayable",
      "type": "function"
    },
    {
      "inputs": [
        {
          "internalType": "uint256",
          "name": "amount",
          "type": "uint256"
        }
      ],
      "name": "withdraw",
      "outputs": [],
      "stateMutability": "nonpayable",
      "type": "function"
    }
  ],
  "bytecode": "0x60a06040523480156200001157600080fd5b5060405162001a5b38038062001a5b83398101604081905262000034916200016a565b6001600255620000466000846200009e565b50620000737fa49807205ce4d355092ef5a8a18f56e8913cf4a201fbe287825b095693c21775846200009e565b506001600160a01b03918216608052600380546001600160a01b0319169190921617905550620001b4565b6000828152602081815260408083206001600160a01b038516845290915281205460ff1662000143576000838152602081815260408083206001600160a01b03861684529091529020805460ff19166001179055620000fa3390565b6001600160a01b0316826001600160a01b0316847f2f8788117e7eff1d82e926ec794901d17c78024a50270940304540a733656f0d60405160405180910390a450600162000147565b5060005b92915050565b80516001600160a01b03811681146200016557600080fd5b919050565b6000806000606084860312156200018057600080fd5b6200018b846200014d565b92506200019b602085016200014d565b9150620001ab604085016200014d565b90509250925092565b608051611876620001e5600039600081816101b8015281816106da015281816108f10152610cac01526118766000f3fe608060405234801561001057600080fd5b50600436106101585760003560e01c80634d0adefd116100c3578063a217fddf1161007c578063a217fddf1461030e578063b6b55f2514610316578063c3df4a5b14610329578063d547741f14610331578063d683369314610344578063fed45c371461036457600080fd5b80634d0adefd146102995780634e29cba6146102ae5780635c975abb146102d357806375b238fc146102de5780638456cb59146102f357806391d14854146102fb57600080fd5b80632aaf0ed4116101155780632aaf0ed4146102325780632e1a7d4d146102455780632f2ff15d1461025857806336568abe1461026b5780633f4ba83a1461027e578063492cad131461028657600080fd5b806301ffc9a71461015d578063194125e9146101855780631fccf672146101b3578063239a37de146101f2578063248a9ca31461020757806325999e7f1461022a575b600080fd5b61017061016b36600461129a565b61038f565b60405190151581526020015b60405180910390f35b6101a56101933660046112e7565b60046020526000908152604090205481565b60405190815260200161017c565b6101da7f000000000000000000000000000000000000000000000000000000000000000081565b6040516001600160a01b03909116815260200161017c565b61020561020036600461134b565b6103c6565b005b6101a56102153660046113d8565b60009081526020819052604090206001015490565b6006546101a5565b6102056102403660046112e7565b610806565b6102056102533660046113d8565b61083b565b6102056102663660046113f1565b6109e7565b6102056102793660046113f1565b610a12565b610205610a45565b6003546101da906001600160a01b031681565b6101a560008051602061180183398151915281565b6102c16102bc3660046113d8565b610a68565b60405161017c96959493929190611463565b60015460ff16610170565b6101a560008051602061182183398151915281565b610205610bdc565b6101706103093660046113f1565b610bfc565b6101a5600081565b6102056103243660046113d8565b610c25565b6101a5610dc1565b61020561033f3660046113f1565b610e10565b6103576103523660046113d8565b610e35565b60405161017c91906114b4565b6101a5610372366004611547565b805160208183018101805160058252928201919093012091525481565b60006001600160e01b03198216637965db0b60e01b14806103c057506301ffc9a760e01b6001600160e01b03198316145b92915050565b6000805160206118018339815191526103de8161105c565b6103e6611066565b6103ee61108c565b600084116104385760405162461bcd60e51b81526020600482015260126024820152710416d6f756e74206d757374206265203e20360741b60448201526064015b60405180910390fd5b6001600160a01b0385166104825760405162461bcd60e51b8152602060048201526011602482015270125b9d985b1a59081c9958da5c1a595b9d607a1b604482015260640161042f565b336000908152600460205260409020548411156104e15760405162461bcd60e51b815260206004820152601b60248201527f496e73756666696369656e74206167656e63792062616c616e63650000000000604482015260640161042f565b8561051d5760405162461bcd60e51b815260206004820152600c60248201526b111251081c995c5d5a5c995960a21b604482015260640161042f565b336000908152600460205260408120805486929061053c90849061160e565b925050819055508360058888604051610556929190611621565b908152602001604051809103902060008282546105739190611631565b90915550506040805160e06020601f8a01819004028201810190925260c081018881526006928291908b908b90819085018382808284376000920191909152505050908252506001600160a01b03881660208083019190915260408083018990528051601f880183900483028101830190915286815260609092019190879087908190840183828082843760009201829052509385525050336020808501919091524260409094019390935250835460018101855593815220815191926006020190819061064190826116c8565b5060208201516001820180546001600160a01b0319166001600160a01b03909216919091179055604082015160028201556060820151600382019061068690826116c8565b506080820151600482810180546001600160a01b0319166001600160a01b0393841617905560a09093015160059092019190915560405163a9059cbb60e01b815287821692810192909252602482018690527f0000000000000000000000000000000000000000000000000000000000000000169063a9059cbb906044016020604051808303816000875af1158015610723573d6000803e3d6000fd5b505050506040513d601f19601f820116820180604052508101906107479190611788565b61078a5760405162461bcd60e51b815260206004820152601460248201527318d554d1081d1c985b9cd9995c8819985a5b195960621b604482015260640161042f565b336001600160a01b0316856001600160a01b031688886040516107ae929190611621565b60405180910390207fbc0c96c402d9318357c79ae373e27a3219ed7bda171ac01084468d321c0b2cdb878787426040516107eb94939291906117aa565b60405180910390a46107fd6001600255565b50505050505050565b60008051602061182183398151915261081e8161105c565b610836600080516020611801833981519152836110b4565b505050565b6000805160206118018339815191526108538161105c565b61085b61108c565b336000908152600460205260409020548211156108b15760405162461bcd60e51b8152602060048201526014602482015273496e73756666696369656e742062616c616e636560601b604482015260640161042f565b33600090815260046020526040812080548492906108d090849061160e565b909155505060405163a9059cbb60e01b8152336004820152602481018390527f00000000000000000000000000000000000000000000000000000000000000006001600160a01b03169063a9059cbb906044016020604051808303816000875af1158015610942573d6000803e3d6000fd5b505050506040513d601f19601f820116820180604052508101906109669190611788565b6109a45760405162461bcd60e51b815260206004820152600f60248201526e151c985b9cd9995c8819985a5b1959608a1b604482015260640161042f565b60405182815233907f7084f5476618d8e60b11ef0d7d3f06914655adb8793e28ff7f018d4c76d505d59060200160405180910390a26109e36001600255565b5050565b600082815260208190526040902060010154610a028161105c565b610a0c83836110b4565b50505050565b6001600160a01b0381163314610a3b5760405163334bd91960e11b815260040160405180910390fd5b6108368282611146565b600080516020611821833981519152610a5d8161105c565b610a656111b1565b50565b60068181548110610a7857600080fd5b9060005260206000209060060201600091509050806000018054610a9b90611644565b80601f0160208091040260200160405190810160405280929190818152602001828054610ac790611644565b8015610b145780601f10610ae957610100808354040283529160200191610b14565b820191906000526020600020905b815481529060010190602001808311610af757829003601f168201915b505050506001830154600284015460038501805494956001600160a01b039093169491935090610b4390611644565b80601f0160208091040260200160405190810160405280929190818152602001828054610b6f90611644565b8015610bbc5780601f10610b9157610100808354040283529160200191610bbc565b820191906000526020600020905b815481529060010190602001808311610b9f57829003601f168201915b50505050600483015460059093015491926001600160a01b031691905086565b600080516020611821833981519152610bf48161105c565b610a65611203565b6000918252602082815260408084206001600160a01b0393909316845291905290205460ff1690565b600080516020611801833981519152610c3d8161105c565b610c45611066565b60008211610c8a5760405162461bcd60e51b81526020600482015260126024820152710416d6f756e74206d757374206265203e20360741b604482015260640161042f565b6040516323b872dd60e01b8152336004820152306024820152604481018390527f00000000000000000000000000000000000000000000000000000000000000006001600160a01b0316906323b872dd906064016020604051808303816000875af1158015610cfd573d6000803e3d6000fd5b505050506040513d601f19601f82011682018060405250810190610d219190611788565b610d645760405162461bcd60e51b815260206004820152601460248201527318d554d1081d1c985b9cd9995c8819985a5b195960621b604482015260640161042f565b3360009081526004602052604081208054849290610d83908490611631565b909155505060405182815233907f2da466a7b24304f47e87fa2e1e5a81b9831ce54fec19055ce277ca2f39ba42c49060200160405180910390a25050565b600080805b600654811015610e0a5760068181548110610de357610de36117ea565b90600052602060002090600602016002015482610e009190611631565b9150600101610dc6565b50919050565b600082815260208190526040902060010154610e2b8161105c565b610a0c8383611146565b610e806040518060c001604052806060815260200160006001600160a01b03168152602001600081526020016060815260200160006001600160a01b03168152602001600081525090565b6006548210610ec75760405162461bcd60e51b8152602060048201526013602482015272496e646578206f7574206f6620626f756e647360681b604482015260640161042f565b60068281548110610eda57610eda6117ea565b90600052602060002090600602016040518060c0016040529081600082018054610f0390611644565b80601f0160208091040260200160405190810160405280929190818152602001828054610f2f90611644565b8015610f7c5780601f10610f5157610100808354040283529160200191610f7c565b820191906000526020600020905b815481529060010190602001808311610f5f57829003601f168201915b505050918352505060018201546001600160a01b0316602082015260028201546040820152600382018054606090920191610fb690611644565b80601f0160208091040260200160405190810160405280929190818152602001828054610fe290611644565b801561102f5780601f106110045761010080835404028352916020019161102f565b820191906000526020600020905b81548152906001019060200180831161101257829003601f168201915b505050918352505060048201546001600160a01b0316602082015260059091015460409091015292915050565b610a65813361123e565b60015460ff161561108a5760405163d93c066560e01b815260040160405180910390fd5b565b60028054036110ae57604051633ee5aeb560e01b815260040160405180910390fd5b60028055565b60006110c08383610bfc565b61113e576000838152602081815260408083206001600160a01b03861684529091529020805460ff191660011790556110f63390565b6001600160a01b0316826001600160a01b0316847f2f8788117e7eff1d82e926ec794901d17c78024a50270940304540a733656f0d60405160405180910390a45060016103c0565b5060006103c0565b60006111528383610bfc565b1561113e576000838152602081815260408083206001600160a01b0386168085529252808320805460ff1916905551339286917ff6391f5c32d9c69d2a47ea670b442974b53935d1edc7fd64eb21e047a839171b9190a45060016103c0565b6111b9611277565b6001805460ff191690557f5db9ee0a495bf2e6ff9c91a7834c1ba4fdd244a5e8aa4e537bd38aeae4b073aa335b6040516001600160a01b03909116815260200160405180910390a1565b61120b611066565b6001805460ff1916811790557f62e78cea01bee320cd4e420270b5ea74000d11b0c9f74754ebdbfc544b05a258336111e6565b6112488282610bfc565b6109e35760405163e2517d3f60e01b81526001600160a01b03821660048201526024810183905260440161042f565b60015460ff1661108a57604051638dfc202b60e01b815260040160405180910390fd5b6000602082840312156112ac57600080fd5b81356001600160e01b0319811681146112c457600080fd5b9392505050565b80356001600160a01b03811681146112e257600080fd5b919050565b6000602082840312156112f957600080fd5b6112c4826112cb565b60008083601f84011261131457600080fd5b50813567ffffffffffffffff81111561132c57600080fd5b60208301915083602082850101111561134457600080fd5b9250929050565b6000806000806000806080878903121561136457600080fd5b863567ffffffffffffffff8082111561137c57600080fd5b6113888a838b01611302565b909850965086915061139c60208a016112cb565b95506040890135945060608901359150808211156113b957600080fd5b506113c689828a01611302565b979a9699509497509295939492505050565b6000602082840312156113ea57600080fd5b5035919050565b6000806040838503121561140457600080fd5b82359150611414602084016112cb565b90509250929050565b6000815180845260005b8181101561144357602081850181015186830182015201611427565b506000602082860101526020601f19601f83011685010191505092915050565b60c08152600061147660c083018961141d565b6001600160a01b03888116602085015260408401889052838203606085015261149f828861141d565b95166080840152505060a00152949350505050565b602081526000825160c060208401526114d060e084018261141d565b9050602084015160018060a01b0380821660408601526040860151606086015260608601519150601f1985840301608086015261150d838361141d565b92508060808701511660a0860152505060a084015160c08401528091505092915050565b634e487b7160e01b600052604160045260246000fd5b60006020828403121561155957600080fd5b813567ffffffffffffffff8082111561157157600080fd5b818401915084601f83011261158557600080fd5b81358181111561159757611597611531565b604051601f8201601f19908116603f011681019083821181831017156115bf576115bf611531565b816040528281528760208487010111156115d857600080fd5b826020860160208301376000928101602001929092525095945050505050565b634e487b7160e01b600052601160045260246000fd5b818103818111156103c0576103c06115f8565b8183823760009101908152919050565b808201808211156103c0576103c06115f8565b600181811c9082168061165857607f821691505b602082108103610e0a57634e487b7160e01b600052602260045260246000fd5b601f821115610836576000816000526020600020601f850160051c810160208610156116a15750805b601f850160051c820191505b818110156116c0578281556001016116ad565b505050505050565b815167ffffffffffffffff8111156116e2576116e2611531565b6116f6816116f08454611644565b84611678565b602080601f83116001811461172b57600084156117135750858301515b600019600386901b1c1916600185901b1785556116c0565b600085815260208120601f198616915b8281101561175a5788860151825594840194600190910190840161173b565b50858210156117785787850151600019600388901b60f8161c191681555b5050505050600190811b01905550565b60006020828403121561179a57600080fd5b815180151581146112c457600080fd5b848152606060208201528260608201528284608083013760006080848301015260006080601f19601f860116830101905082604083015295945050505050565b634e487b7160e01b600052603260045260246000fdfeb65a831710346acfae65a808a37f27ab439206a966e9a4ab4035af91c51c8dd1a49807205ce4d355092ef5a8a18f56e8913cf4a201fbe287825b095693c21775a26469706673582212201d4cda15c6b6586ade1d61288c29841987c8df368375f2b30afad872311477e664736f6c63430008180033",
  "linkReferences": {},
  "deployedLinkReferences": {}
}